{
  "contractName": "ERC721Enumerable",
  "abi": [
    {
      "anonymous": false,
      "inputs": [
        {
          "indexed": true,
          "internalType": "address",
          "name": "_owner",
          "type": "address"
        },
        {
          "indexed": true,
          "internalType": "address",
          "name": "_approved",
          "type": "address"
        },
        {
          "indexed": true,
          "internalType": "uint256",
          "name": "_tokenId",
          "type": "uint256"
        }
      ],
      "name": "Approval",
      "type": "event"
    },
    {
      "anonymous": false,
      "inputs": [
        {
          "indexed": true,
          "internalType": "address",
          "name": "_from",
          "type": "address"
        },
        {
          "indexed": true,
          "internalType": "address",
          "name": "_to",
          "type": "address"
        },
        {
          "indexed": true,
          "internalType": "uint256",
          "name": "_tokenId",
          "type": "uint256"
        }
      ],
      "name": "Transfer",
      "type": "event"
    },
    {
      "inputs": [
        {
          "internalType": "address",
          "name": "_to",
          "type": "address"
        },
        {
          "internalType": "uint256",
          "name": "tokenId",
          "type": "uint256"
        }
      ],
      "name": "approve",
      "outputs": [],
      "stateMutability": "nonpayable",
      "type": "function"
    },
    {
      "inputs": [
        {
          "internalType": "address",
          "name": "_owner",
          "type": "address"
        }
      ],
      "name": "balanceOf",
      "outputs": [
        {
          "internalType": "uint256",
          "name": "",
          "type": "uint256"
        }
      ],
      "stateMutability": "view",
      "type": "function"
    },
    {
      "inputs": [
        {
          "internalType": "uint256",
          "name": "_tokenId",
          "type": "uint256"
        }
      ],
      "name": "ownerOf",
      "outputs": [
        {
          "internalType": "address",
          "name": "",
          "type": "address"
        }
      ],
      "stateMutability": "view",
      "type": "function"
    },
    {
      "inputs": [
        {
          "internalType": "bytes4",
          "name": "interfaceID",
          "type": "bytes4"
        }
      ],
      "name": "supportsInterface",
      "outputs": [
        {
          "internalType": "bool",
          "name": "",
          "type": "bool"
        }
      ],
      "stateMutability": "view",
      "type": "function"
    },
    {
      "inputs": [
        {
          "internalType": "address",
          "name": "_from",
          "type": "address"
        },
        {
          "internalType": "address",
          "name": "_to",
          "type": "address"
        },
        {
          "internalType": "uint256",
          "name": "_tokenId",
          "type": "uint256"
        }
      ],
      "name": "transferFrom",
      "outputs": [],
      "stateMutability": "nonpayable",
      "type": "function"
    },
    {
      "inputs": [
        {
          "internalType": "uint256",
          "name": "index",
          "type": "uint256"
        }
      ],
      "name": "tokenByIndex",
      "outputs": [
        {
          "internalType": "uint256",
          "name": "",
          "type": "uint256"
        }
      ],
      "stateMutability": "view",
      "type": "function"
    },
    {
      "inputs": [
        {
          "internalType": "address",
          "name": "owner",
          "type": "address"
        },
        {
          "internalType": "uint256",
          "name": "index",
          "type": "uint256"
        }
      ],
      "name": "tokenOfOwnerByIndex",
      "outputs": [
        {
          "internalType": "uint256",
          "name": "",
          "type": "uint256"
        }
      ],
      "stateMutability": "view",
      "type": "function"
    },
    {
      "inputs": [],
      "name": "totalSupply",
      "outputs": [
        {
          "internalType": "uint256",
          "name": "",
          "type": "uint256"
        }
      ],
      "stateMutability": "view",
      "type": "function"
    }
  ],
  "bytecode": "0x60806040523480156200001157600080fd5b50620000437fd35ab8786ff405029face69ecfc438c8111ce55b3a54e779381d8842659e2fe16200004960201b60201c565b620001a4565b63ffffffff60e01b817bffffffffffffffffffffffffffffffffffffffffffffffffffffffff19161415620000b5576040517f08c379a0000000000000000000000000000000000000000000000000000000008152600401620000ac9062000182565b60405180910390fd5b6001600080837bffffffffffffffffffffffffffffffffffffffffffffffffffffffff19167bffffffffffffffffffffffffffffffffffffffffffffffffffffffff1916815260200190815260200160002060006101000a81548160ff02191690831515021790555050565b600082825260208201905092915050565b7f496e76616c696420696e74657266616365205265717565737400000000000000600082015250565b60006200016a60198362000121565b9150620001778262000132565b602082019050919050565b600060208201905081810360008301526200019d816200015b565b9050919050565b61129680620001b46000396000f3fe608060405234801561001057600080fd5b50600436106100885760003560e01c80632f745c591161005b5780632f745c59146101135780634f6ccce7146101435780636352211e1461017357806370a08231146101a357610088565b806301ffc9a71461008d578063095ea7b3146100bd57806318160ddd146100d957806323b872dd146100f7575b600080fd5b6100a760048036038101906100a29190610aa5565b6101d3565b6040516100b49190610aed565b60405180910390f35b6100d760048036038101906100d29190610b9c565b61023a565b005b6100e1610446565b6040516100ee9190610beb565b60405180910390f35b610111600480360381019061010c9190610c06565b610453565b005b61012d60048036038101906101289190610b9c565b610476565b60405161013a9190610beb565b60405180910390f35b61015d60048036038101906101589190610c59565b610526565b60405161016a9190610beb565b60405180910390f35b61018d60048036038101906101889190610c59565b610597565b60405161019a9190610c95565b60405180910390f35b6101bd60048036038101906101b89190610cb0565b610649565b6040516101ca9190610beb565b60405180910390f35b6000806000837bffffffffffffffffffffffffffffffffffffffffffffffffffffffff19167bffffffffffffffffffffffffffffffffffffffffffffffffffffffff1916815260200190815260200160002060009054906101000a900460ff169050919050565b600061024582610597565b90508073ffffffffffffffffffffffffffffffffffffffff163373ffffffffffffffffffffffffffffffffffffffff16146102b5576040517f08c379a00000000000000000000000000000000000000000000000000000000081526004016102ac90610d60565b60405180910390fd5b8073ffffffffffffffffffffffffffffffffffffffff168373ffffffffffffffffffffffffffffffffffffffff161415610324576040517f08c379a000000000000000000000000000000000000000000000000000000000815260040161031b90610df2565b60405180910390fd5b600073ffffffffffffffffffffffffffffffffffffffff168373ffffffffffffffffffffffffffffffffffffffff161415610394576040517f08c379a000000000000000000000000000000000000000000000000000000000815260040161038b90610e84565b60405180910390fd5b826003600084815260200190815260200160002060006101000a81548173ffffffffffffffffffffffffffffffffffffffff021916908373ffffffffffffffffffffffffffffffffffffffff160217905550818373ffffffffffffffffffffffffffffffffffffffff168273ffffffffffffffffffffffffffffffffffffffff167f8c5be1e5ebec7d5bd14f71427d1e84f3dd0314c0f7b2291e5b200ac8c7c3b92560405160405180910390a4505050565b6000600480549050905090565b61045d3382610701565b61046657600080fd5b610471838383610790565b505050565b600061048183610649565b82106104c2576040517f08c379a00000000000000000000000000000000000000000000000000000000081526004016104b990610ef0565b60405180910390fd5b600660008473ffffffffffffffffffffffffffffffffffffffff1673ffffffffffffffffffffffffffffffffffffffff168152602001908152602001600020828154811061051357610512610f10565b5b9060005260206000200154905092915050565b6000610530610446565b8210610571576040517f08c379a000000000000000000000000000000000000000000000000000000000815260040161056890610f8b565b60405180910390fd5b6004828154811061058557610584610f10565b5b90600052602060002001549050919050565b6000806001600084815260200190815260200160002060009054906101000a900473ffffffffffffffffffffffffffffffffffffffff169050600073ffffffffffffffffffffffffffffffffffffffff168173ffffffffffffffffffffffffffffffffffffffff161415610640576040517f08c379a000000000000000000000000000000000000000000000000000000000815260040161063790610ff7565b60405180910390fd5b80915050919050565b60008073ffffffffffffffffffffffffffffffffffffffff168273ffffffffffffffffffffffffffffffffffffffff1614156106ba576040517f08c379a00000000000000000000000000000000000000000000000000000000081526004016106b190611089565b60405180910390fd5b600260008373ffffffffffffffffffffffffffffffffffffffff1673ffffffffffffffffffffffffffffffffffffffff168152602001908152602001600020549050919050565b600061070c826109d6565b61074b576040517f08c379a0000000000000000000000000000000000000000000000000000000008152600401610742906110f5565b60405180910390fd5b600061075683610597565b90508073ffffffffffffffffffffffffffffffffffffffff168473ffffffffffffffffffffffffffffffffffffffff161491505092915050565b600073ffffffffffffffffffffffffffffffffffffffff168273ffffffffffffffffffffffffffffffffffffffff161415610800576040517f08c379a00000000000000000000000000000000000000000000000000000000081526004016107f790610e84565b60405180910390fd5b8273ffffffffffffffffffffffffffffffffffffffff1661082082610597565b73ffffffffffffffffffffffffffffffffffffffff1614610876576040517f08c379a000000000000000000000000000000000000000000000000000000000815260040161086d90611187565b60405180910390fd5b6001600260008573ffffffffffffffffffffffffffffffffffffffff1673ffffffffffffffffffffffffffffffffffffffff16815260200190815260200160002060008282546108c691906111d6565b925050819055506001600260008473ffffffffffffffffffffffffffffffffffffffff1673ffffffffffffffffffffffffffffffffffffffff168152602001908152602001600020600082825461091d919061120a565b92505081905550816001600083815260200190815260200160002060006101000a81548173ffffffffffffffffffffffffffffffffffffffff021916908373ffffffffffffffffffffffffffffffffffffffff160217905550808273ffffffffffffffffffffffffffffffffffffffff168473ffffffffffffffffffffffffffffffffffffffff167fddf252ad1be2c89b69c2b068fc378daa952ba7f163c4a11628f55a4df523b3ef60405160405180910390a4505050565b6000806001600084815260200190815260200160002060009054906101000a900473ffffffffffffffffffffffffffffffffffffffff169050600073ffffffffffffffffffffffffffffffffffffffff168173ffffffffffffffffffffffffffffffffffffffff161415915050919050565b600080fd5b60007fffffffff0000000000000000000000000000000000000000000000000000000082169050919050565b610a8281610a4d565b8114610a8d57600080fd5b50565b600081359050610a9f81610a79565b92915050565b600060208284031215610abb57610aba610a48565b5b6000610ac984828501610a90565b91505092915050565b60008115159050919050565b610ae781610ad2565b82525050565b6000602082019050610b026000830184610ade565b92915050565b600073ffffffffffffffffffffffffffffffffffffffff82169050919050565b6000610b3382610b08565b9050919050565b610b4381610b28565b8114610b4e57600080fd5b50565b600081359050610b6081610b3a565b92915050565b6000819050919050565b610b7981610b66565b8114610b8457600080fd5b50565b600081359050610b9681610b70565b92915050565b60008060408385031215610bb357610bb2610a48565b5b6000610bc185828601610b51565b9250506020610bd285828601610b87565b9150509250929050565b610be581610b66565b82525050565b6000602082019050610c006000830184610bdc565b92915050565b600080600060608486031215610c1f57610c1e610a48565b5b6000610c2d86828701610b51565b9350506020610c3e86828701610b51565b9250506040610c4f86828701610b87565b9150509250925092565b600060208284031215610c6f57610c6e610a48565b5b6000610c7d84828501610b87565b91505092915050565b610c8f81610b28565b82525050565b6000602082019050610caa6000830184610c86565b92915050565b600060208284031215610cc657610cc5610a48565b5b6000610cd484828501610b51565b91505092915050565b600082825260208201905092915050565b7f43757272656e742063616c6c6572206973206e6f7420746865206f776e65722060008201527f6f662074686520746f6b656e0000000000000000000000000000000000000000602082015250565b6000610d4a602c83610cdd565b9150610d5582610cee565b604082019050919050565b60006020820190508181036000830152610d7981610d3d565b9050919050565b7f5479696e6720746f207472616e7366657220746865206f776e657220746f206960008201527f7473656c66000000000000000000000000000000000000000000000000000000602082015250565b6000610ddc602583610cdd565b9150610de782610d80565b604082019050919050565b60006020820190508181036000830152610e0b81610dcf565b9050919050565b7f4572726f72202d20455243373231205472616e7366657220746f20746865207a60008201527f65726f2061646472657373000000000000000000000000000000000000000000602082015250565b6000610e6e602b83610cdd565b9150610e7982610e12565b604082019050919050565b60006020820190508181036000830152610e9d81610e61565b9050919050565b7f6f776e657220696e646578206973206f7574206f6620626f756e642100000000600082015250565b6000610eda601c83610cdd565b9150610ee582610ea4565b602082019050919050565b60006020820190508181036000830152610f0981610ecd565b9050919050565b7f4e487b7100000000000000000000000000000000000000000000000000000000600052603260045260246000fd5b7f676c6f62616c20696e646578206973206f7574206f6620626f756e6421000000600082015250565b6000610f75601d83610cdd565b9150610f8082610f3f565b602082019050919050565b60006020820190508181036000830152610fa481610f68565b9050919050565b7f4f776e65722073686f756c64206e6f7420626520300000000000000000000000600082015250565b6000610fe1601583610cdd565b9150610fec82610fab565b602082019050919050565b6000602082019050818103600083015261101081610fd4565b9050919050565b7f4f776e657220717565727920666f72206e6f6e2d6578697374656e7420746f6b60008201527f656e000000000000000000000000000000000000000000000000000000000000602082015250565b6000611073602283610cdd565b915061107e82611017565b604082019050919050565b600060208201905081810360008301526110a281611066565b9050919050565b7f546f6b656e20646f6573206e6f74206578697374730000000000000000000000600082015250565b60006110df601583610cdd565b91506110ea826110a9565b602082019050919050565b6000602082019050818103600083015261110e816110d2565b9050919050565b7f5479696e6720746f207472616e73666572206120746f6b656e2074686520616460008201527f647265737320646f6573206e6f74206f776e0000000000000000000000000000602082015250565b6000611171603283610cdd565b915061117c82611115565b604082019050919050565b600060208201905081810360008301526111a081611164565b9050919050565b7f4e487b7100000000000000000000000000000000000000000000000000000000600052601160045260246000fd5b60006111e182610b66565b91506111ec83610b66565b9250828210156111ff576111fe6111a7565b5b828203905092915050565b600061121582610b66565b915061122083610b66565b9250827fffffffffffffffffffffffffffffffffffffffffffffffffffffffffffffffff03821115611255576112546111a7565b5b82820190509291505056fea2646970667358221220acb116e112e3fb0ab0a5c3194eab9608d2644a90c00a5b56b5029d3d348d814f64736f6c634300080a0033",
  "immutableReferences": {},
  "source": "// SPDX-License-Identifier: MIT\npragma solidity >=0.8.0 <0.9.0;\n\nimport \"./ERC721.sol\";\n\ncontract ERC721Enumerable is ERC721 {\n\n    uint256[] private _allTokens;\n\n    //mapping from tokenId to position in _allTokens array\n    mapping(uint256 => uint256) private _allTokensIndex;\n\n    //mapping of owner to list of all owner token ids\n    mapping(address => uint256[]) private _ownedTokens;\n\n    //mapping from tokenID index of the owner tokens list\n    mapping(uint256 => uint256) private _ownedTokensIndex;\n\n    //function tokenByIndex(uint256 _index) external view returns (uint256);\n\n    //function tokenOfOwnerByIndex(address _owner, uint256 _index) external view returns (uint256);\n\n    function _mint(address to, uint256 tokenId) internal override(ERC721) {\n        super._mint(to, tokenId);\n        // add tokents to the owner\n        // all tokens to our total supply\n\n        _addTokensToAllTokenEnumeration(tokenId);\n        _addTokensToOwnerEnumeration(to, tokenId);\n\n    }\n\n    // add tokens to the _alltokens array and set the position of the tokenId\n    function _addTokensToAllTokenEnumeration(uint256 tokenId) private {\n        //we want to put the position of the tokenId, basically we take the length and that is the postion of the tokenId\n        _allTokensIndex[tokenId] = _allTokens.length;\n        _allTokens.push(tokenId);\n\n    }\n\n    function _addTokensToOwnerEnumeration(address to, uint256 tokenId) private {\n        \n        _ownedTokensIndex[tokenId] = _ownedTokens[to].length;\n        // add address and token id to the _ownedTokens\n        _ownedTokens[to].push(tokenId);\n    }\n\n    //returns tokenByIndex\n    function tokenByIndex(uint256 index) public view returns(uint256) {\n        require(index < totalSupply(), \"global index is out of bound!\");\n        return _allTokens[index];\n    }\n\n    //returns tokenOfOwnerByIndex\n    function tokenOfOwnerByIndex(address owner, uint256 index) public view returns(uint256) {\n        require(index < balanceOf(owner), \"owner index is out of bound!\");\n        return _ownedTokens[owner][index];\n    }\n\n    //return total supply of the _allTokens array\n    function totalSupply() public view returns(uint256) {\n        return _allTokens.length;\n    }\n}",
  "sourcePath": "/Users/michelepicozzi/Documents/Coding/nft-marketplace-starter-kit-main/contracts/ERC721Enumerable.sol",
  "compiler": {
    "name": "solc",
    "version": "0.8.10+commit.fc410830.Emscripten.clang"
  },
  "schemaVersion": "3.4.3",
  "updatedAt": "2022-02-21T15:22:48.678Z",
  "devdoc": {
    "kind": "dev",
    "methods": {
      "balanceOf(address)": {
        "details": "NFTs assigned to the zero address are considered invalid, and this  function throws for queries about the zero address.",
        "params": {
          "_owner": "An address for whom to query the balance"
        },
        "returns": {
          "_0": "The number of NFTs owned by `_owner`, possibly zero"
        }
      },
      "ownerOf(uint256)": {
        "details": "NFTs assigned to zero address are considered invalid, and queries  about them do throw.",
        "params": {
          "_tokenId": "The identifier for an NFT"
        },
        "returns": {
          "_0": "The address of the owner of the NFT"
        }
      },
      "supportsInterface(bytes4)": {
        "details": "Interface identification is specified in ERC-165. This function  uses less than 30,000 gas.",
        "params": {
          "interfaceID": "The interface identifier, as specified in ERC-165"
        },
        "returns": {
          "_0": "`true` if the contract implements `interfaceID` and  `interfaceID` is not 0xffffffff, `false` otherwise"
        }
      }
    },
    "version": 1
  },
  "userdoc": {
    "kind": "user",
    "methods": {
      "balanceOf(address)": {
        "notice": "Count all NFTs assigned to an owner"
      },
      "ownerOf(uint256)": {
        "notice": "Find the owner of an NFT"
      },
      "supportsInterface(bytes4)": {
        "notice": "Query if a contract implements an interface"
      }
    },
    "version": 1
  }
}