{
  "contractName": "KryptoBird",
  "abi": [
    {
      "inputs": [],
      "stateMutability": "nonpayable",
      "type": "constructor"
    },
    {
      "anonymous": false,
      "inputs": [
        {
          "indexed": true,
          "internalType": "address",
          "name": "_owner",
          "type": "address"
        },
        {
          "indexed": true,
          "internalType": "address",
          "name": "_approved",
          "type": "address"
        },
        {
          "indexed": true,
          "internalType": "uint256",
          "name": "_tokenId",
          "type": "uint256"
        }
      ],
      "name": "Approval",
      "type": "event"
    },
    {
      "anonymous": false,
      "inputs": [
        {
          "indexed": true,
          "internalType": "address",
          "name": "_from",
          "type": "address"
        },
        {
          "indexed": true,
          "internalType": "address",
          "name": "_to",
          "type": "address"
        },
        {
          "indexed": true,
          "internalType": "uint256",
          "name": "_tokenId",
          "type": "uint256"
        }
      ],
      "name": "Transfer",
      "type": "event"
    },
    {
      "inputs": [
        {
          "internalType": "address",
          "name": "_to",
          "type": "address"
        },
        {
          "internalType": "uint256",
          "name": "tokenId",
          "type": "uint256"
        }
      ],
      "name": "approve",
      "outputs": [],
      "stateMutability": "nonpayable",
      "type": "function"
    },
    {
      "inputs": [
        {
          "internalType": "address",
          "name": "_owner",
          "type": "address"
        }
      ],
      "name": "balanceOf",
      "outputs": [
        {
          "internalType": "uint256",
          "name": "",
          "type": "uint256"
        }
      ],
      "stateMutability": "view",
      "type": "function",
      "constant": true
    },
    {
      "inputs": [
        {
          "internalType": "uint256",
          "name": "",
          "type": "uint256"
        }
      ],
      "name": "kryptoBirdz",
      "outputs": [
        {
          "internalType": "string",
          "name": "",
          "type": "string"
        }
      ],
      "stateMutability": "view",
      "type": "function",
      "constant": true
    },
    {
      "inputs": [],
      "name": "name",
      "outputs": [
        {
          "internalType": "string",
          "name": "",
          "type": "string"
        }
      ],
      "stateMutability": "view",
      "type": "function",
      "constant": true
    },
    {
      "inputs": [
        {
          "internalType": "uint256",
          "name": "_tokenId",
          "type": "uint256"
        }
      ],
      "name": "ownerOf",
      "outputs": [
        {
          "internalType": "address",
          "name": "",
          "type": "address"
        }
      ],
      "stateMutability": "view",
      "type": "function",
      "constant": true
    },
    {
      "inputs": [
        {
          "internalType": "bytes4",
          "name": "interfaceID",
          "type": "bytes4"
        }
      ],
      "name": "supportsInterface",
      "outputs": [
        {
          "internalType": "bool",
          "name": "",
          "type": "bool"
        }
      ],
      "stateMutability": "view",
      "type": "function",
      "constant": true
    },
    {
      "inputs": [],
      "name": "symbol",
      "outputs": [
        {
          "internalType": "string",
          "name": "",
          "type": "string"
        }
      ],
      "stateMutability": "view",
      "type": "function",
      "constant": true
    },
    {
      "inputs": [
        {
          "internalType": "uint256",
          "name": "index",
          "type": "uint256"
        }
      ],
      "name": "tokenByIndex",
      "outputs": [
        {
          "internalType": "uint256",
          "name": "",
          "type": "uint256"
        }
      ],
      "stateMutability": "view",
      "type": "function",
      "constant": true
    },
    {
      "inputs": [
        {
          "internalType": "address",
          "name": "owner",
          "type": "address"
        },
        {
          "internalType": "uint256",
          "name": "index",
          "type": "uint256"
        }
      ],
      "name": "tokenOfOwnerByIndex",
      "outputs": [
        {
          "internalType": "uint256",
          "name": "",
          "type": "uint256"
        }
      ],
      "stateMutability": "view",
      "type": "function",
      "constant": true
    },
    {
      "inputs": [],
      "name": "totalSupply",
      "outputs": [
        {
          "internalType": "uint256",
          "name": "",
          "type": "uint256"
        }
      ],
      "stateMutability": "view",
      "type": "function",
      "constant": true
    },
    {
      "inputs": [
        {
          "internalType": "address",
          "name": "_from",
          "type": "address"
        },
        {
          "internalType": "address",
          "name": "_to",
          "type": "address"
        },
        {
          "internalType": "uint256",
          "name": "_tokenId",
          "type": "uint256"
        }
      ],
      "name": "transferFrom",
      "outputs": [],
      "stateMutability": "nonpayable",
      "type": "function"
    },
    {
      "inputs": [
        {
          "internalType": "string",
          "name": "_kryptoBird",
          "type": "string"
        }
      ],
      "name": "mint",
      "outputs": [],
      "stateMutability": "nonpayable",
      "type": "function"
    }
  ],
  "bytecode": "0x60806040523480156200001157600080fd5b506040518060400160405280600a81526020017f4b727970746f42697264000000000000000000000000000000000000000000008152506040518060400160405280600681526020017f4b424952445a00000000000000000000000000000000000000000000000000008152508181816000908051906020019062000098929190620001c6565b508060019080519060200190620000b1929190620001c6565b505050620000e57fd35ab8786ff405029face69ecfc438c8111ce55b3a54e779381d8842659e2fe1620000ed60201b60201c565b50506200035e565b63ffffffff60e01b817bffffffffffffffffffffffffffffffffffffffffffffffffffffffff1916141562000159576040517f08c379a00000000000000000000000000000000000000000000000000000000081526004016200015090620002d7565b60405180910390fd5b600160026000837bffffffffffffffffffffffffffffffffffffffffffffffffffffffff19167bffffffffffffffffffffffffffffffffffffffffffffffffffffffff1916815260200190815260200160002060006101000a81548160ff02191690831515021790555050565b828054620001d49062000328565b90600052602060002090601f016020900481019282620001f8576000855562000244565b82601f106200021357805160ff191683800117855562000244565b8280016001018555821562000244579182015b828111156200024357825182559160200191906001019062000226565b5b50905062000253919062000257565b5090565b5b808211156200027257600081600090555060010162000258565b5090565b600082825260208201905092915050565b7f496e76616c696420696e74657266616365205265717565737400000000000000600082015250565b6000620002bf60198362000276565b9150620002cc8262000287565b602082019050919050565b60006020820190508181036000830152620002f281620002b0565b9050919050565b7f4e487b7100000000000000000000000000000000000000000000000000000000600052602260045260246000fd5b600060028204905060018216806200034157607f821691505b60208210811415620003585762000357620002f9565b5b50919050565b611e52806200036e6000396000f3fe608060405234801561001057600080fd5b50600436106100b45760003560e01c80634f6ccce7116100715780634f6ccce71461018d5780636352211e146101bd57806370a08231146101ed57806393ab6e561461021d57806395d89b411461024d578063d85d3d271461026b576100b4565b806301ffc9a7146100b957806306fdde03146100e9578063095ea7b31461010757806318160ddd1461012357806323b872dd146101415780632f745c591461015d575b600080fd5b6100d360048036038101906100ce91906111cf565b610287565b6040516100e09190611217565b60405180910390f35b6100f16102ef565b6040516100fe91906112cb565b60405180910390f35b610121600480360381019061011c9190611381565b610381565b005b61012b61058d565b60405161013891906113d0565b60405180910390f35b61015b600480360381019061015691906113eb565b61059a565b005b61017760048036038101906101729190611381565b6105bd565b60405161018491906113d0565b60405180910390f35b6101a760048036038101906101a2919061143e565b61066d565b6040516101b491906113d0565b60405180910390f35b6101d760048036038101906101d2919061143e565b6106de565b6040516101e4919061147a565b60405180910390f35b61020760048036038101906102029190611495565b610790565b60405161021491906113d0565b60405180910390f35b6102376004803603810190610232919061143e565b610848565b60405161024491906112cb565b60405180910390f35b6102556108f4565b60405161026291906112cb565b60405180910390f35b610285600480360381019061028091906115f7565b610986565b005b600060026000837bffffffffffffffffffffffffffffffffffffffffffffffffffffffff19167bffffffffffffffffffffffffffffffffffffffffffffffffffffffff1916815260200190815260200160002060009054906101000a900460ff169050919050565b6060600080546102fe9061166f565b80601f016020809104026020016040519081016040528092919081815260200182805461032a9061166f565b80156103775780601f1061034c57610100808354040283529160200191610377565b820191906000526020600020905b81548152906001019060200180831161035a57829003601f168201915b5050505050905090565b600061038c826106de565b90508073ffffffffffffffffffffffffffffffffffffffff163373ffffffffffffffffffffffffffffffffffffffff16146103fc576040517f08c379a00000000000000000000000000000000000000000000000000000000081526004016103f390611713565b60405180910390fd5b8073ffffffffffffffffffffffffffffffffffffffff168373ffffffffffffffffffffffffffffffffffffffff16141561046b576040517f08c379a0000000000000000000000000000000000000000000000000000000008152600401610462906117a5565b60405180910390fd5b600073ffffffffffffffffffffffffffffffffffffffff168373ffffffffffffffffffffffffffffffffffffffff1614156104db576040517f08c379a00000000000000000000000000000000000000000000000000000000081526004016104d290611837565b60405180910390fd5b826005600084815260200190815260200160002060006101000a81548173ffffffffffffffffffffffffffffffffffffffff021916908373ffffffffffffffffffffffffffffffffffffffff160217905550818373ffffffffffffffffffffffffffffffffffffffff168273ffffffffffffffffffffffffffffffffffffffff167f8c5be1e5ebec7d5bd14f71427d1e84f3dd0314c0f7b2291e5b200ac8c7c3b92560405160405180910390a4505050565b6000600680549050905090565b6105a43382610a89565b6105ad57600080fd5b6105b8838383610b18565b505050565b60006105c883610790565b8210610609576040517f08c379a0000000000000000000000000000000000000000000000000000000008152600401610600906118a3565b60405180910390fd5b600860008473ffffffffffffffffffffffffffffffffffffffff1673ffffffffffffffffffffffffffffffffffffffff168152602001908152602001600020828154811061065a576106596118c3565b5b9060005260206000200154905092915050565b600061067761058d565b82106106b8576040517f08c379a00000000000000000000000000000000000000000000000000000000081526004016106af9061193e565b60405180910390fd5b600682815481106106cc576106cb6118c3565b5b90600052602060002001549050919050565b6000806003600084815260200190815260200160002060009054906101000a900473ffffffffffffffffffffffffffffffffffffffff169050600073ffffffffffffffffffffffffffffffffffffffff168173ffffffffffffffffffffffffffffffffffffffff161415610787576040517f08c379a000000000000000000000000000000000000000000000000000000000815260040161077e906119aa565b60405180910390fd5b80915050919050565b60008073ffffffffffffffffffffffffffffffffffffffff168273ffffffffffffffffffffffffffffffffffffffff161415610801576040517f08c379a00000000000000000000000000000000000000000000000000000000081526004016107f890611a3c565b60405180910390fd5b600460008373ffffffffffffffffffffffffffffffffffffffff1673ffffffffffffffffffffffffffffffffffffffff168152602001908152602001600020549050919050565b600a818154811061085857600080fd5b9060005260206000200160009150905080546108739061166f565b80601f016020809104026020016040519081016040528092919081815260200182805461089f9061166f565b80156108ec5780601f106108c1576101008083540402835291602001916108ec565b820191906000526020600020905b8154815290600101906020018083116108cf57829003601f168201915b505050505081565b6060600180546109039061166f565b80601f016020809104026020016040519081016040528092919081815260200182805461092f9061166f565b801561097c5780601f106109515761010080835404028352916020019161097c565b820191906000526020600020905b81548152906001019060200180831161095f57829003601f168201915b5050505050905090565b600b816040516109969190611a98565b908152602001604051809103902060009054906101000a900460ff16156109f2576040517f08c379a00000000000000000000000000000000000000000000000000000000081526004016109e990611b21565b60405180910390fd5b600a81908060018154018082558091505060019003906000526020600020016000909190919091509080519060200190610a2d9291906110c0565b5060006001600a80549050610a429190611b70565b9050610a4e3382610d5e565b6001600b83604051610a609190611a98565b908152602001604051809103902060006101000a81548160ff0219169083151502179055505050565b6000610a9482610d7f565b610ad3576040517f08c379a0000000000000000000000000000000000000000000000000000000008152600401610aca90611bf0565b60405180910390fd5b6000610ade836106de565b90508073ffffffffffffffffffffffffffffffffffffffff168473ffffffffffffffffffffffffffffffffffffffff161491505092915050565b600073ffffffffffffffffffffffffffffffffffffffff168273ffffffffffffffffffffffffffffffffffffffff161415610b88576040517f08c379a0000000000000000000000000000000000000000000000000000000008152600401610b7f90611837565b60405180910390fd5b8273ffffffffffffffffffffffffffffffffffffffff16610ba8826106de565b73ffffffffffffffffffffffffffffffffffffffff1614610bfe576040517f08c379a0000000000000000000000000000000000000000000000000000000008152600401610bf590611c82565b60405180910390fd5b6001600460008573ffffffffffffffffffffffffffffffffffffffff1673ffffffffffffffffffffffffffffffffffffffff1681526020019081526020016000206000828254610c4e9190611b70565b925050819055506001600460008473ffffffffffffffffffffffffffffffffffffffff1673ffffffffffffffffffffffffffffffffffffffff1681526020019081526020016000206000828254610ca59190611ca2565b92505081905550816003600083815260200190815260200160002060006101000a81548173ffffffffffffffffffffffffffffffffffffffff021916908373ffffffffffffffffffffffffffffffffffffffff160217905550808273ffffffffffffffffffffffffffffffffffffffff168473ffffffffffffffffffffffffffffffffffffffff167fddf252ad1be2c89b69c2b068fc378daa952ba7f163c4a11628f55a4df523b3ef60405160405180910390a4505050565b610d688282610df1565b610d7181610fb3565b610d7b8282610ffc565b5050565b6000806003600084815260200190815260200160002060009054906101000a900473ffffffffffffffffffffffffffffffffffffffff169050600073ffffffffffffffffffffffffffffffffffffffff168173ffffffffffffffffffffffffffffffffffffffff161415915050919050565b600073ffffffffffffffffffffffffffffffffffffffff168273ffffffffffffffffffffffffffffffffffffffff161415610e61576040517f08c379a0000000000000000000000000000000000000000000000000000000008152600401610e5890611d6a565b60405180910390fd5b610e6a81610d7f565b15610eaa576040517f08c379a0000000000000000000000000000000000000000000000000000000008152600401610ea190611dfc565b60405180910390fd5b816003600083815260200190815260200160002060006101000a81548173ffffffffffffffffffffffffffffffffffffffff021916908373ffffffffffffffffffffffffffffffffffffffff1602179055506001600460008473ffffffffffffffffffffffffffffffffffffffff1673ffffffffffffffffffffffffffffffffffffffff1681526020019081526020016000206000828254610f4c9190611ca2565b92505081905550808273ffffffffffffffffffffffffffffffffffffffff16600073ffffffffffffffffffffffffffffffffffffffff167fddf252ad1be2c89b69c2b068fc378daa952ba7f163c4a11628f55a4df523b3ef60405160405180910390a45050565b6006805490506007600083815260200190815260200160002081905550600681908060018154018082558091505060019003906000526020600020016000909190919091505550565b600860008373ffffffffffffffffffffffffffffffffffffffff1673ffffffffffffffffffffffffffffffffffffffff168152602001908152602001600020805490506009600083815260200190815260200160002081905550600860008373ffffffffffffffffffffffffffffffffffffffff1673ffffffffffffffffffffffffffffffffffffffff1681526020019081526020016000208190806001815401808255809150506001900390600052602060002001600090919091909150555050565b8280546110cc9061166f565b90600052602060002090601f0160209004810192826110ee5760008555611135565b82601f1061110757805160ff1916838001178555611135565b82800160010185558215611135579182015b82811115611134578251825591602001919060010190611119565b5b5090506111429190611146565b5090565b5b8082111561115f576000816000905550600101611147565b5090565b6000604051905090565b600080fd5b600080fd5b60007fffffffff0000000000000000000000000000000000000000000000000000000082169050919050565b6111ac81611177565b81146111b757600080fd5b50565b6000813590506111c9816111a3565b92915050565b6000602082840312156111e5576111e461116d565b5b60006111f3848285016111ba565b91505092915050565b60008115159050919050565b611211816111fc565b82525050565b600060208201905061122c6000830184611208565b92915050565b600081519050919050565b600082825260208201905092915050565b60005b8381101561126c578082015181840152602081019050611251565b8381111561127b576000848401525b50505050565b6000601f19601f8301169050919050565b600061129d82611232565b6112a7818561123d565b93506112b781856020860161124e565b6112c081611281565b840191505092915050565b600060208201905081810360008301526112e58184611292565b905092915050565b600073ffffffffffffffffffffffffffffffffffffffff82169050919050565b6000611318826112ed565b9050919050565b6113288161130d565b811461133357600080fd5b50565b6000813590506113458161131f565b92915050565b6000819050919050565b61135e8161134b565b811461136957600080fd5b50565b60008135905061137b81611355565b92915050565b600080604083850312156113985761139761116d565b5b60006113a685828601611336565b92505060206113b78582860161136c565b9150509250929050565b6113ca8161134b565b82525050565b60006020820190506113e560008301846113c1565b92915050565b6000806000606084860312156114045761140361116d565b5b600061141286828701611336565b935050602061142386828701611336565b92505060406114348682870161136c565b9150509250925092565b6000602082840312156114545761145361116d565b5b60006114628482850161136c565b91505092915050565b6114748161130d565b82525050565b600060208201905061148f600083018461146b565b92915050565b6000602082840312156114ab576114aa61116d565b5b60006114b984828501611336565b91505092915050565b600080fd5b600080fd5b7f4e487b7100000000000000000000000000000000000000000000000000000000600052604160045260246000fd5b61150482611281565b810181811067ffffffffffffffff82111715611523576115226114cc565b5b80604052505050565b6000611536611163565b905061154282826114fb565b919050565b600067ffffffffffffffff821115611562576115616114cc565b5b61156b82611281565b9050602081019050919050565b82818337600083830152505050565b600061159a61159584611547565b61152c565b9050828152602081018484840111156115b6576115b56114c7565b5b6115c1848285611578565b509392505050565b600082601f8301126115de576115dd6114c2565b5b81356115ee848260208601611587565b91505092915050565b60006020828403121561160d5761160c61116d565b5b600082013567ffffffffffffffff81111561162b5761162a611172565b5b611637848285016115c9565b91505092915050565b7f4e487b7100000000000000000000000000000000000000000000000000000000600052602260045260246000fd5b6000600282049050600182168061168757607f821691505b6020821081141561169b5761169a611640565b5b50919050565b7f43757272656e742063616c6c6572206973206e6f7420746865206f776e65722060008201527f6f662074686520746f6b656e0000000000000000000000000000000000000000602082015250565b60006116fd602c8361123d565b9150611708826116a1565b604082019050919050565b6000602082019050818103600083015261172c816116f0565b9050919050565b7f5479696e6720746f207472616e7366657220746865206f776e657220746f206960008201527f7473656c66000000000000000000000000000000000000000000000000000000602082015250565b600061178f60258361123d565b915061179a82611733565b604082019050919050565b600060208201905081810360008301526117be81611782565b9050919050565b7f4572726f72202d20455243373231205472616e7366657220746f20746865207a60008201527f65726f2061646472657373000000000000000000000000000000000000000000602082015250565b6000611821602b8361123d565b915061182c826117c5565b604082019050919050565b6000602082019050818103600083015261185081611814565b9050919050565b7f6f776e657220696e646578206973206f7574206f6620626f756e642100000000600082015250565b600061188d601c8361123d565b915061189882611857565b602082019050919050565b600060208201905081810360008301526118bc81611880565b9050919050565b7f4e487b7100000000000000000000000000000000000000000000000000000000600052603260045260246000fd5b7f676c6f62616c20696e646578206973206f7574206f6620626f756e6421000000600082015250565b6000611928601d8361123d565b9150611933826118f2565b602082019050919050565b600060208201905081810360008301526119578161191b565b9050919050565b7f4f776e65722073686f756c64206e6f7420626520300000000000000000000000600082015250565b600061199460158361123d565b915061199f8261195e565b602082019050919050565b600060208201905081810360008301526119c381611987565b9050919050565b7f4f776e657220717565727920666f72206e6f6e2d6578697374656e7420746f6b60008201527f656e000000000000000000000000000000000000000000000000000000000000602082015250565b6000611a2660228361123d565b9150611a31826119ca565b604082019050919050565b60006020820190508181036000830152611a5581611a19565b9050919050565b600081905092915050565b6000611a7282611232565b611a7c8185611a5c565b9350611a8c81856020860161124e565b80840191505092915050565b6000611aa48284611a67565b915081905092915050565b7f4572726f72202d206b727970746f4269726420616c726561647920657869737460008201527f7300000000000000000000000000000000000000000000000000000000000000602082015250565b6000611b0b60218361123d565b9150611b1682611aaf565b604082019050919050565b60006020820190508181036000830152611b3a81611afe565b9050919050565b7f4e487b7100000000000000000000000000000000000000000000000000000000600052601160045260246000fd5b6000611b7b8261134b565b9150611b868361134b565b925082821015611b9957611b98611b41565b5b828203905092915050565b7f546f6b656e20646f6573206e6f74206578697374730000000000000000000000600082015250565b6000611bda60158361123d565b9150611be582611ba4565b602082019050919050565b60006020820190508181036000830152611c0981611bcd565b9050919050565b7f5479696e6720746f207472616e73666572206120746f6b656e2074686520616460008201527f647265737320646f6573206e6f74206f776e0000000000000000000000000000602082015250565b6000611c6c60328361123d565b9150611c7782611c10565b604082019050919050565b60006020820190508181036000830152611c9b81611c5f565b9050919050565b6000611cad8261134b565b9150611cb88361134b565b9250827fffffffffffffffffffffffffffffffffffffffffffffffffffffffffffffffff03821115611ced57611cec611b41565b5b828201905092915050565b7f455243373231206e6565647320746f206d696e7420746f2061207265616c206160008201527f6464726573730000000000000000000000000000000000000000000000000000602082015250565b6000611d5460268361123d565b9150611d5f82611cf8565b604082019050919050565b60006020820190508181036000830152611d8381611d47565b9050919050565b7f45524337323120746f6b656e2068617320616c7265616479206265656e206d6960008201527f6e74656400000000000000000000000000000000000000000000000000000000602082015250565b6000611de660248361123d565b9150611df182611d8a565b604082019050919050565b60006020820190508181036000830152611e1581611dd9565b905091905056fea264697066735822122032eb760164f46ddee47bcb0e67f1c4a843863f8dc021ae2d5b03a4d6efdec04264736f6c634300080a0033",
  "immutableReferences": {},
  "source": "// SPDX-License-Identifier: MIT\npragma solidity >=0.8.0 <0.9.0;\nimport \"./ERC721Connector.sol\";\n\ncontract KryptoBird is ERC721Connector {\n\n    //Array to store the NFTs\n    string [] public kryptoBirdz;\n\n    mapping(string => bool) _kryptoBirdzExists;\n\n    function mint(string memory _kryptoBird) public {\n        require(!_kryptoBirdzExists[_kryptoBird], \"Error - kryptoBird already exists\");\n\n        // this is deprecated - uint _id = Kryptobirdz.push(_kryptoBird);\n        kryptoBirdz.push(_kryptoBird);\n        uint _id = kryptoBirdz.length -1;\n\n        _mint(msg.sender, _id);\n\n        _kryptoBirdzExists[_kryptoBird] = true;\n    }\n    constructor() ERC721Connector(\"KryptoBird\", \"KBIRDZ\") {\n        \n    }\n}",
  "sourcePath": "/Users/michelepicozzi/Documents/Coding/nft-marketplace-starter-kit-main/contracts/KryptoBirz.sol",
  "compiler": {
    "name": "solc",
    "version": "0.8.10+commit.fc410830.Emscripten.clang"
  },
  "schemaVersion": "3.4.3",
  "updatedAt": "2022-02-21T15:24:36.204Z",
  "networkType": "ethereum",
  "devdoc": {
    "kind": "dev",
    "methods": {
      "balanceOf(address)": {
        "details": "NFTs assigned to the zero address are considered invalid, and this  function throws for queries about the zero address.",
        "params": {
          "_owner": "An address for whom to query the balance"
        },
        "returns": {
          "_0": "The number of NFTs owned by `_owner`, possibly zero"
        }
      },
      "ownerOf(uint256)": {
        "details": "NFTs assigned to zero address are considered invalid, and queries  about them do throw.",
        "params": {
          "_tokenId": "The identifier for an NFT"
        },
        "returns": {
          "_0": "The address of the owner of the NFT"
        }
      },
      "supportsInterface(bytes4)": {
        "details": "Interface identification is specified in ERC-165. This function  uses less than 30,000 gas.",
        "params": {
          "interfaceID": "The interface identifier, as specified in ERC-165"
        },
        "returns": {
          "_0": "`true` if the contract implements `interfaceID` and  `interfaceID` is not 0xffffffff, `false` otherwise"
        }
      }
    },
    "version": 1
  },
  "userdoc": {
    "kind": "user",
    "methods": {
      "balanceOf(address)": {
        "notice": "Count all NFTs assigned to an owner"
      },
      "ownerOf(uint256)": {
        "notice": "Find the owner of an NFT"
      },
      "supportsInterface(bytes4)": {
        "notice": "Query if a contract implements an interface"
      }
    },
    "version": 1
  }
}